:10036800EE6003020416EF146033146056146079CB
:1003780024036003020416EB64014A700FAF0504FE
:10038800A807088002C333D8FC428022AF05740155
:10039800A807088002C333D8FCF4528022EB64011A
:1003A8004A700FAF0504A807088002C333D8FC427F
:1003B8009022AF057401A807088002C333D8FCF463
:1003C800529022EB64014A700FAF0504A807088019
:1003D80002C333D8FC42A022AF057401A8070880E5
:1003E80002C333D8FCF452A022EB64014A700FAF69
:1003F8000504A807088002C333D8FC42B022AF0521
:0F0408007401A807088002C333D8FCF452B02255
:10053800D3EF9400EE9400400F7DFADDFE7DF7DDE9
:08054800FEEF1F70EB1E80E8BE
:010550002288
:08058E00040404051F1F1F00F7
:080417008F0B8E0A8D098C0881
:10041F0012023C8E0C8F0D1204A97F2E12057CAE9A
:10042F000CAF0D7C007D641202BD8E0C8F0DAF0BD7
:10043F00AE0AAD09AC08E4FBFA79C878421200F8AD
:10044F008F0B8E0A8D098C08C004C005C006C0072B
:10045F00AC0CAD0DEC120203A804A905AA06AB075C
:10046F00D007D006D005D0041200038F0B8E0A8D53
:10047F00098C0812023C8E0C8F0D7C007D0A120233
:10048F00CFEF2430FF12057CAE0CAF0D7C007D0A40
:0A049F001202CFED2430FF02057CAD
:0404A9008F828E832D
:1004AD0085830E85820FE4F510F511F51275130A8B
:1004BD00FAE50F450E6012AE0EAF0F7C007D0A12ED
:1004CD0002CF8E0E8F0F0A80E885830E85820FEA8C
:1004DD00D394024012AE12AF137C007D0A1202BDFE
:1004ED008E128F131A80E8E50F450E603DAC12ADEC
:1004FD0013AE0EAF0F1202CF8E108F117C007D0A3E
:10050D001202CFED2430FF12057CAE0EAF0FAC12F0
:10051D00AD131202CF8C0E8D0FAE12AF137C007D7A
:0A052D000A1202CF8E128F1380BD58
:0105370022A1
:10056A008F80C2B4C2B5D2B67F027E00120538C2ED
:02057A00B622A7
:10057C008F80D2B4C2B5D2B67F027E00120538C2CB
:02058C00B62295
:100551007F0212056A7F3812056A7F0C12056A7FD5
:090561000612056A7F0102056A19
:100000000202A8E86480F8E933E83360110460F084
:10001000ED33EC337009E8FCE9FDEAFEEBFF220466
:1000200060DED3EB9FEA9EE99DE8C2E78CF0C2F761
:1000300095F0400CE8CCF8E9CDF9EACEFAEBCFFB2D
:1000400012027385D0F05804700320D5B3E8047011
:10005000075002B2D50202B292D5EC0460F7E4CCAC
:10006000C0E0C398F8603B94186008400DD0E0FBF6
:1000700002028AE4FBFAC9FC8028E830E406E4C9FD
:10008000FBE4CAFCE830E305E4C9CACBFCE854074A
:100090006010F8C3E913F9EA13FAEB13FBEC13FC55
:1000A000D8F130F52FC3E49CFCEF9BFFEE9AFEEDF8
:1000B00099FDD0E0FBEF4E4D4C701222DB030202A3
:1000C000AFEC2CFCEF33FFEE33FEED33FDED30E70C
:1000D000EB02028AEF2BFFEE3AFEED39FDD0E0FB9A
:1000E00050130BBB00030202B2ED13FDEE13FEEF43
:0800F00013FFEC13FC02028A6D
:1000F800EC4D6011E8497017ED33EC3304600DE402
:10010800FCFFFEFD22E933E8330470F80202A8126E
:10011800027358046009E4CC24815006285009026F
:1001280002B22840030202AFC0E0EB4A7044B98033
:1001380006D0E0FB02029EEF4E701CBD8008EBFF6C
:10014800EAFEE9FD80EBE98DF0A4FEE5F00201E1AD
:10015800E9CDF9EAFEEBFFEF89F0A4FCE5F0CE89E2
:10016800F0A42EFFE435F0CD89F0A42DFEE435F09F
:100178008067EF4E7005BD80D780C3EF8BF0A4ACCD
:10018800F0EE8BF0A42CFCE435F0F8EF8AF0A42C08
:10019800E5F038FCE433CB8DF0A42CFCE5F03BF81B
:1001A800EE8AF0A42CFCE5F038F8E433CF89F0A40B
:1001B8002CFCE5F038CF3400CE89F0A42FFFE5F011
:1001C8003EFEE433C98DF0A42EFEE5F039CD8AF069
:1001D800A42FFFE5F03EFEE43DFD33D0E0FB5007E1
:1001E8000BBB000F0202B2EC2CFCEF33FFEE33FE28
:0601F800ED33FD02028A56
:1001FE0075F020800E75F010800575F0087D007E7C
:10020E00007F003392D530D503120305EC33401036
:10021E00EF33FFEE33FEED33FDEC33FCD5F0ED2284
:0E022E00E5F0247EA2D513CC92E7CDCEFF22C0
:10023C00EDD2E7CD33EC3392D524814006E4FFFEBA
:10024C00FDFC22FCE4CFCECDCC24E0501174FF8019
:10025C00EDC3CC13CCCD13CDCE13CECF13CF0470B6
:07026C00F030D5DE020305AE
:10027300E9D2E7C933E833F892D5EDD2E7CD33ECD1
:0702830033FC5002B2D5224A
:10028A00EC30E7100FBF000C0EBE00080DBD0004D5
:10029A000BEB6014A2D5EB13FCED92E7FD2274FF81
:1002AA00FCFDFEFF22E480F8A2D574FF13FC7D80DA
:0302BA00E480EFEE
:1002BD00EF8DF0A4A8F0CF8CF0A428CE8DF0A42E55
:0202CD00FE220F
:1002CF00C2D5EC30E709B2D5E4C39DFDE49CFCEE4A
:1002DF0030E715B2D5E4C39FFFE49EFE120313C3AC
:1002EF00E49DFDE49CFC800312031330D507C3E4A7
:0602FF009FFFE49EFE22B9
:0E030500C3E49FFFE49EFEE49DFDE49CFC2209
:10031300BC000BBE0029EF8DF084FFADF022E4CCCE
:10032300F875F008EF2FFFEE33FEEC33FCEE9DEC97
:10033300984005FCEE9DFE0FD5F0E9E4CEFD22EDDD
:10034300F8F5F0EE8420D21CFEADF075F008EF2F27
:10035300FFED33FD4007985006D5F0F222C398FD18
:050363000FD5F0EA22B5
:00000001FF
