:10000300EE60030200A8EF146030146050146070B7
:10001300240360030200A8AF0574017E00A807084B
:100023008005C333CE33CED8F9FFAB80EF5B7E00C0
:1000330060047F01806B7F008067AF0574017E00E1
:10004300A807088005C333CE33CED8F9FFAB90EFB2
:100053005B7E0060047F0180027F008044AF0574F3
:10006300017E00A807088005C333CE33CED8F9FF3D
:10007300ABA0EF5B7E0060047F0180027F008021E4
:10008300AF0574017E00A807088005C333CE33CEC5
:10009300D8F9FFADB0EF5D7E0060047F0180027F81
:0900A300008E0C8F0DAE0CAF0DA8
:0100AC002231
:10014100EE7019EF14600D14600D14600D2403702E
:0D0151000B8D80228D90228DA0228DB0227A
:1000EE00EE702AEF24FE7025EB64014A700FAF0507
:1000FE0004A807088002C333D8FC42A022AF0574BF
:0E010E0001A807088002C333D8FCF452A022D7
:10015E00D3EF9400EE9400400F7DFADDFE7DF7DDC7
:08016E00FEEF1F70EB1E80E89C
:010176002266
:1000AD00750B0F7DFF7C007F027E0012014120B099
:1000BD00FDA2B0E4FC33FD7F037E00120003EF4E82
:1000CD0060EF7F327E0012015EAF0B150BEFFD7CF2
:1000DD00007F027E001201417F327E0012015E80A0
:0100ED00CD45
:10011C008B088A09890AAB08AA09A90A12019060FE
:10012C0013050AE50A7002050914F9120190FF1271
:05013C0001BB80E2227E
:1001A9008F80C2B4C2B5D2B67F027E0012015EC290
:0201B900B6226C
:1001BB008F80D2B4C2B5D2B67F027E0012015EC26E
:0201CB00B6225A
:100177007F021201A97F381201A97F0C1201A97F02
:09018700061201A97F010201A981
:030000000201CD2D
:0C01CD00787FE4F6D8FD75810D0200ADCE
:10019000BB010689828A83E0225002E722BBFE026D
:0901A000E32289828A83E49322A0
:00000001FF
