:10000300EE60030200A8EF146030146050146070B7
:10001300240360030200A8AF0574017E00A807084B
:100023008005C333CE33CED8F9FFAB80EF5B7E00C0
:1000330060047F01806B7F008067AF0574017E00E1
:10004300A807088005C333CE33CED8F9FFAB90EFB2
:100053005B7E0060047F0180027F008044AF0574F3
:10006300017E00A807088005C333CE33CED8F9FF3D
:10007300ABA0EF5B7E0060047F0180027F008021E4
:10008300AF0574017E00A807088005C333CE33CEC5
:10009300D8F9FFADB0EF5D7E0060047F0180027F81
:0900A300008E0C8F0DAE0CAF0DA8
:0100AC002231
:10019000EE7019EF14600D14600D14600D240370DF
:0D01A0000B8D80228D90228DA0228DB0222B
:10013D00EE702AEF24FE7025EB64014A700FAF05B7
:10014D0004A807088002C333D8FC42A022AF05746F
:0E015D0001A807088002C333D8FCF452A02288
:1001AD00D3EF9400EE9400400F7DFADDFE7DF7DD78
:0801BD00FEEF1F70EB1E80E84D
:0101C5002217
:1000AD00E4F50B1201C6E4FDFC7F02FE120003EF26
:1000BD004E70F37F32FE1201ADE4FDFC7F02FE12A5
:1000CD000003EF4E60F37F327E001201AD050B7F12
:1000DD00011201DFE50B75F00A1201022430FF1247
:1000ED0001F1E50B75F00A120102AFF0EF2430FFBC
:0500FD001201F180B1C9
:10016B008B088A09890AAB08AA09A90A120124601B
:10017B0013050AE50A7002050914F9120124FF128E
:05018B0001F180E222F9
:1001DF008F80C2B4C2B5D2B67F027E001201ADC20B
:0201EF00B62236
:1001F1008F80D2B4C2B5D2B67F027E001201ADC2E9
:02020100B62223
:1001C6007F021201DF7F381201DF7F0C1201DF7F11
:0901D600061201DF7F010201DFC6
:03000000020203F6
:0C020300787FE4F6D8FD75810D0200AD97
:10010200C2D530F707B2D563F0FF05F030E70CB285
:10011200D5F4048463F0FF05F080018430D502F445
:020122000422B5
:10012400BB010689828A83E0225002E722BBFE02D9
:09013400E32289828A83E493220C
:00000001FF
