:10012400D3EF9400EE9400400F7DFADDFE7DF7DD01
:08013400FEEF1F70EB1E80E8D6
:01013C0022A0
:10000300EE60030200A8EF146030146050146070B7
:10001300240360030200A8AF0574017E00A807084B
:100023008005C333CE33CED8F9FFAB80EF5B7E00C0
:1000330060047F01806B7F008067AF0574017E00E1
:10004300A807088005C333CE33CED8F9FFAB90EFB2
:100053005B7E0060047F0180027F008044AF0574F3
:10006300017E00A807088005C333CE33CED8F9FF3D
:10007300ABA0EF5B7E0060047F0180027F008021E4
:10008300AF0574017E00A807088005C333CE33CEC5
:10009300D8F9FFADB0EF5D7E0060047F0180027F81
:0900A300008E088F09AE08AF09B8
:0100AC002231
:10010700EE7019EF14600D14600D14600D24037068
:0D0117000B8D80228D90228DA0228DB022B4
:1000AD00EE702AEF24FE7025EB64014A700FAF0548
:1000BD0004A807088002C333D8FC42A022AF057400
:0E00CD0001A807088002C333D8FCF452A02219
:1000DB00750A0F750B0F20B00FAF0A150AEFFD7CD9
:1000EB00007F027E001201077FE87E031201247D50
:0C00FB000F7C007F027E0012010780DAFB
:0300000002013DBD
:0C013D00787FE4F6D8FD75810B0200DB32
:00000001FF
