:1000F800D3EF9400EE9400400F7DFADDFE7DF7DD2E
:08010800FEEF1F70EB1E80E802
:0101100022CC
:01011D0022BF
:10000300EE60030200A8EF146030146050146070B7
:10001300240360030200A8AF0574017E00A807084B
:100023008005C333CE33CED8F9FFAB80EF5B7E00C0
:1000330060047F01806B7F008067AF0574017E00E1
:10004300A807088005C333CE33CED8F9FFAB90EFB2
:100053005B7E0060047F0180027F008044AF0574F3
:10006300017E00A807088005C333CE33CED8F9FF3D
:10007300ABA0EF5B7E0060047F0180027F008021E4
:10008300AF0574017E00A807088005C333CE33CEC5
:10009300D8F9FFADB0EF5D7E0060047F0180027F81
:0900A300008E088F09AE08AF09B8
:0100AC002231
:1000DB00EE7019EF14600D14600D14600D24037095
:0D00EB000B8D80228D90228DA0228DB022E1
:1000AD00EE702AEF24FE7025EB64014A700FAF0548
:1000BD0004A807088002C333D8FC42A022AF057400
:0E00CD0001A807088002C333D8FCF452A02219
:03000000020111E9
:0C011100787FE4F6D8FD75810902011D1D
:00000001FF
