:10017E00D3EF9400EE9400400F7DFADDFE7DF7DDA7
:08018E00FEEF1F70EB1E80E87C
:010196002246
:10000300EE60030200A8EF146030146050146070B7
:10001300240360030200A8AF0574017E00A807084B
:100023008005C333CE33CED8F9FFAB80EF5B7E00C0
:1000330060047F01806B7F008067AF0574017E00E1
:10004300A807088005C333CE33CED8F9FFAB90EFB2
:100053005B7E0060047F0180027F008044AF0574F3
:10006300017E00A807088005C333CE33CED8F9FF3D
:10007300ABA0EF5B7E0060047F0180027F008021E4
:10008300AF0574017E00A807088005C333CE33CEC5
:10009300D8F9FFADB0EF5D7E0060047F0180027F81
:0900A300008E0C8F0DAE0CAF0DA8
:0100AC002231
:10016100EE7019EF14600D14600D14600D2403700E
:0D0171000B8D80228D90228DA0228DB0225A
:10010E00EE702AEF24FE7025EB64014A700FAF05E6
:10011E0004A807088002C333D8FC42A022AF05749E
:0E012E0001A807088002C333D8FCF452A022B7
:1000AD00750B011201977F41804DE50BC3943C50B8
:1000BD004BE4FDFC7F02FE120003EF4E70EC7F015E
:1000CD001201C97F327E0012017EE4FDFC7F02FE2B
:1000DD00120003EF4E60F37F327E0012017E050B9E
:1000ED00E50B75F00A842430FF1201DBE50B75F08A
:1000FD000A84E5F02430FF1201DB80AE750B018020
:01010D00A948
:10013C008B088A09890AAB08AA09A90A1201B060BE
:10014C0013050AE50A7002050914F91201B0FF1231
:05015C0001DB80E2223E
:1001C9008F80C2B4C2B5D2B67F027E0012017EC250
:0201D900B6224C
:1001DB008F80D2B4C2B5D2B67F027E0012017EC22E
:0201EB00B6223A
:100197007F021201C97F381201C97F0C1201C97F82
:0901A700061201C97F010201C921
:030000000201ED0D
:0C01ED00787FE4F6D8FD75810D0200ADAE
:1001B000BB010689828A83E0225002E722BBFE024D
:0901C000E32289828A83E4932280
:00000001FF
