:10000300EE60030200B1EF1460331460561460799C
:10001300240360030200B1EB64014A700FAF0504CF
:10002300A807088002C333D8FC428022AF057401BD
:10003300A807088002C333D8FCF4528022EB640182
:100043004A700FAF0504A807088002C333D8FC42E7
:100053009022AF057401A807088002C333D8FCF4CB
:10006300529022EB64014A700FAF0504A807088081
:1000730002C333D8FC42A022AF057401A80708804D
:1000830002C333D8FCF452A022EB64014A700FAFD1
:100093000504A807088002C333D8FC42B022AF0589
:0F00A3007401A807088002C333D8FCF452B022BE
:10013E00E4FBFAFDFC7F02FE12000312015E7B015E
:10014E007A00E4FDFC7F02FE12000312015E80E0E5
:1001720010090102030405060708090A0B0C0D0EFB
:020182000F105C
:10015E00758901758CFE758A19D28C308DFDC28C15
:04016E00C28D00221C
:030000000200B249
:0C00B200787FE4F6D8FD7581190200F992
:1000BE0002013EE493A3F8E493A34003F68001F219
:1000CE0008DFF48029E493A3F85407240CC8C33343
:1000DE00C4540F4420C8834004F456800146F6DF12
:1000EE00E4800B0102040810204080900172E47E2F
:1000FE00019360BCA3FF543F30E509541FFEE49307
:10010E00A360010ECF54C025E060A840B8E493A3CD
:10011E00FAE493A3F8E493A3C8C582C8CAC583CAF8
:10012E00F0A3C8C582C8CAC583CADFE9DEE780BEB0
:01018400007A
:00000001FF
